:100000003FC04EC04DC04CC04BC04AC049C048C0A4
:1000100047C0A9C045C044C043C042C041C040C061
:100020003FC03EC03DC0000000003700340031003A
:1000300000000000360033003000000000003800EF
:100040003500320004040404040404040202020221
:10005000020203030303030301020408102040808B
:100060000102040810200102040810200000000012
:100070000000000000030406000000000000000073
:1000800011241FBECFE5D4E0DEBFCDBF20E0A0E647
:10009000B0E001C01D92A037B207E1F7AED0D0C1E9
:1000A000AFCF843039F0863049F0833051F48FB5CA
:1000B0008F7702C08FB58F7D8FBD089585B58F7DF9
:1000C00085BD08951F93CF93DF93E1E7F0E094910E
:1000D000EDE5F0E0D491E9E4F0E0C491CC23C9F07F
:1000E000182F992311F0892FDCDFEC2FF0E0EE0FB1
:1000F000FF1FE65CFF4FA591B4919FB7F8941111D3
:1001000004C08C91D095D82302C0EC91DE2BDC93F7
:100110009FBFDF91CF911F9108953FB7F8948091D1
:100120006C0090916D00A0916E00B0916F0022B7AD
:1001300008B600FE05C02F3F19F00196A11DB11DA4
:100140003FBFBA2FA92F982F8827820F911DA11D7D
:10015000B11DBC01CD0142E0660F771F881F991FBA
:100160004A95D1F708951F920F920FB60F9211245E
:100170002F933F938F939F93AF93BF93809168008A
:1001800090916900A0916A00B0916B003091670076
:1001900023E0230F2D3720F40196A11DB11D05C0CA
:1001A00026E8230F0296A11DB11D209367008093BE
:1001B000680090936900A0936A00B0936B008091EF
:1001C0006C0090916D00A0916E00B0916F0001964F
:1001D000A11DB11D80936C0090936D00A0936E00E3
:1001E000B0936F00BF91AF919F918F913F912F91ED
:1001F0000F900FBE0F901F901895789483B7826070
:1002000083BF83B7816083BF89B7816089BF1EBC0C
:100210008EB582608EBD8EB581608EBD8FB58160DA
:100220008FBD85B5846085BD85B5806485BD329AF6
:10023000319A309A379A1AB8CBE5D0E0FE01249172
:1002400007E410E0F80184918823C9F090E0880F5A
:10025000991FFC01EA5DFF4FA591B491FC01E65C9A
:10026000FF4F459154913FB7F8949C91822F809510
:1002700098239C93FA019081892380833FBFEDE509
:10028000F0E02491E9E4F0E08491882399F090E093
:10029000880F991FFC01EA5DFF4FA591B491FC0105
:1002A000E65CFF4F859194918FB7F894EC91E22B27
:1002B000EC938FBF80E006DF2FB7F8948091680041
:1002C00090916900A0916A00B0916B002FBF80935C
:1002D000630090936400A0936500B09366002FE6DE
:1002E000822E20E0922E30E0A32E30E0B32E332475
:1002F0003394F4018491FE01F490F801E490EE202F
:1003000009F486C08111CDDEEE2DF0E0EE0FFF1F67
:10031000E05DFF4FA591B4918C91F82209F478C06B
:100320008091610090916200069714F03092600015
:100330008FB7F894409168005091690060916A000D
:1003400070916B008FBF8091630090916400A091C9
:100350006500B0916600805F984DAF4FBF4F841726
:100360009507A607B70708F04DC08091600081117E
:1003700049C081E0A7DED1DE2B013C0188E8C82E10
:1003800083E1D82EE12CF12CC8DEDC01CB018419ED
:100390009509A609B709883E9340A105B105A0F3C8
:1003A000F1E0CF1AD108E108F10828EE420E23E06F
:1003B000521E611C711CC114D104E104F10421F727
:1003C00080E080DE2FB7F8948091680090916900FA
:1003D000A0916A00B0916B002FBF805F984DAF4F26
:1003E000BF4F8093630090936400A0936500B09327
:1003F0006600809161009091620001969093620086
:1004000080936100A114B10409F473CFF9DD71CFB9
:100410002FB7F8948091680090916900A0916A00CC
:10042000B0916B002FBF8093630090936400A09302
:100430006500B0936600109262001092610070CF68
:04044000F894FFCF5E
:00000001FF
